{
  "_format": "hh-sol-artifact-1",
  "contractName": "NFTBurner",
  "sourceName": "contracts/burnit.sol",
  "abi": [
    {
      "inputs": [
        {
          "internalType": "address",
          "name": "_loveToken",
          "type": "address"
        },
        {
          "internalType": "address",
          "name": "_collection1",
          "type": "address"
        },
        {
          "internalType": "address",
          "name": "_collection2",
          "type": "address"
        },
        {
          "internalType": "address",
          "name": "_collection3",
          "type": "address"
        },
        {
          "internalType": "address",
          "name": "_collection4",
          "type": "address"
        },
        {
          "internalType": "uint256",
          "name": "_rewardAmount",
          "type": "uint256"
        }
      ],
      "stateMutability": "nonpayable",
      "type": "constructor"
    },
    {
      "inputs": [
        {
          "internalType": "uint256",
          "name": "tokenId",
          "type": "uint256"
        },
        {
          "internalType": "uint8",
          "name": "collectionIndex",
          "type": "uint8"
        }
      ],
      "name": "burnNFT",
      "outputs": [],
      "stateMutability": "nonpayable",
      "type": "function"
    },
    {
      "inputs": [],
      "name": "collection1",
      "outputs": [
        {
          "internalType": "contract IERC721WithBurn",
          "name": "",
          "type": "address"
        }
      ],
      "stateMutability": "view",
      "type": "function"
    },
    {
      "inputs": [],
      "name": "collection2",
      "outputs": [
        {
          "internalType": "contract IERC721WithBurn",
          "name": "",
          "type": "address"
        }
      ],
      "stateMutability": "view",
      "type": "function"
    },
    {
      "inputs": [],
      "name": "collection3",
      "outputs": [
        {
          "internalType": "contract IERC721WithBurn",
          "name": "",
          "type": "address"
        }
      ],
      "stateMutability": "view",
      "type": "function"
    },
    {
      "inputs": [],
      "name": "collection4",
      "outputs": [
        {
          "internalType": "contract IERC721WithBurn",
          "name": "",
          "type": "address"
        }
      ],
      "stateMutability": "view",
      "type": "function"
    },
    {
      "inputs": [],
      "name": "loveToken",
      "outputs": [
        {
          "internalType": "contract IERC20",
          "name": "",
          "type": "address"
        }
      ],
      "stateMutability": "view",
      "type": "function"
    },
    {
      "inputs": [],
      "name": "owner",
      "outputs": [
        {
          "internalType": "address",
          "name": "",
          "type": "address"
        }
      ],
      "stateMutability": "view",
      "type": "function"
    },
    {
      "inputs": [],
      "name": "rewardAmount",
      "outputs": [
        {
          "internalType": "uint256",
          "name": "",
          "type": "uint256"
        }
      ],
      "stateMutability": "view",
      "type": "function"
    },
    {
      "inputs": [
        {
          "internalType": "uint256",
          "name": "newRewardAmount",
          "type": "uint256"
        }
      ],
      "name": "updateRewardAmount",
      "outputs": [],
      "stateMutability": "nonpayable",
      "type": "function"
    }
  ],
  "bytecode": "0x60806040523480156200001157600080fd5b5060405162000f4e38038062000f4e833981810160405281019062000037919062000274565b336000806101000a81548173ffffffffffffffffffffffffffffffffffffffff021916908373ffffffffffffffffffffffffffffffffffffffff16021790555085600260006101000a81548173ffffffffffffffffffffffffffffffffffffffff021916908373ffffffffffffffffffffffffffffffffffffffff16021790555084600360006101000a81548173ffffffffffffffffffffffffffffffffffffffff021916908373ffffffffffffffffffffffffffffffffffffffff16021790555083600460006101000a81548173ffffffffffffffffffffffffffffffffffffffff021916908373ffffffffffffffffffffffffffffffffffffffff16021790555082600560006101000a81548173ffffffffffffffffffffffffffffffffffffffff021916908373ffffffffffffffffffffffffffffffffffffffff16021790555081600660006101000a81548173ffffffffffffffffffffffffffffffffffffffff021916908373ffffffffffffffffffffffffffffffffffffffff1602179055508060018190555050505050505062000310565b600080fd5b600073ffffffffffffffffffffffffffffffffffffffff82169050919050565b60006200020182620001d4565b9050919050565b6200021381620001f4565b81146200021f57600080fd5b50565b600081519050620002338162000208565b92915050565b6000819050919050565b6200024e8162000239565b81146200025a57600080fd5b50565b6000815190506200026e8162000243565b92915050565b60008060008060008060c08789031215620002945762000293620001cf565b5b6000620002a489828a0162000222565b9650506020620002b789828a0162000222565b9550506040620002ca89828a0162000222565b9450506060620002dd89828a0162000222565b9350506080620002f089828a0162000222565b92505060a06200030389828a016200025d565b9150509295509295509295565b610c2e80620003206000396000f3fe608060405234801561001057600080fd5b50600436106100935760003560e01c80638da5cb5b116100665780638da5cb5b1461010c578063bbc659d21461012a578063c0a47c8c14610148578063f7b2a7be14610166578063fb38a7c71461018457610093565b806315c2ba141461009857806353269475146100b457806359fcf7bd146100d25780638069182d146100ee575b600080fd5b6100b260048036038101906100ad919061073a565b6101a2565b005b6100bc61023a565b6040516100c991906107e6565b60405180910390f35b6100ec60048036038101906100e7919061083a565b610260565b005b6100f661063d565b604051610103919061089b565b60405180910390f35b610114610663565b60405161012191906108d7565b60405180910390f35b610132610687565b60405161013f919061089b565b60405180910390f35b6101506106ad565b60405161015d919061089b565b60405180910390f35b61016e6106d3565b60405161017b9190610901565b60405180910390f35b61018c6106d9565b604051610199919061089b565b60405180910390f35b60008054906101000a900473ffffffffffffffffffffffffffffffffffffffff1673ffffffffffffffffffffffffffffffffffffffff163373ffffffffffffffffffffffffffffffffffffffff1614610230576040517f08c379a00000000000000000000000000000000000000000000000000000000081526004016102279061099f565b60405180910390fd5b8060018190555050565b600260009054906101000a900473ffffffffffffffffffffffffffffffffffffffff1681565b600060018260ff160361029757600360009054906101000a900473ffffffffffffffffffffffffffffffffffffffff169050610374565b60028260ff16036102cc57600460009054906101000a900473ffffffffffffffffffffffffffffffffffffffff169050610373565b60038260ff160361030157600560009054906101000a900473ffffffffffffffffffffffffffffffffffffffff169050610372565b60048260ff160361033657600660009054906101000a900473ffffffffffffffffffffffffffffffffffffffff169050610371565b6040517f08c379a000000000000000000000000000000000000000000000000000000000815260040161036890610a0b565b60405180910390fd5b5b5b5b3373ffffffffffffffffffffffffffffffffffffffff168173ffffffffffffffffffffffffffffffffffffffff16636352211e856040518263ffffffff1660e01b81526004016103c49190610901565b602060405180830381865afa1580156103e1573d6000803e3d6000fd5b505050506040513d601f19601f820116820180604052508101906104059190610a57565b73ffffffffffffffffffffffffffffffffffffffff161461045b576040517f08c379a000000000000000000000000000000000000000000000000000000000815260040161045290610ad0565b60405180910390fd5b8073ffffffffffffffffffffffffffffffffffffffff166323b872dd3330866040518463ffffffff1660e01b815260040161049893929190610af0565b600060405180830381600087803b1580156104b257600080fd5b505af11580156104c6573d6000803e3d6000fd5b505050508073ffffffffffffffffffffffffffffffffffffffff166342966c68846040518263ffffffff1660e01b81526004016105039190610901565b600060405180830381600087803b15801561051d57600080fd5b505af1158015610531573d6000803e3d6000fd5b50505050600260009054906101000a900473ffffffffffffffffffffffffffffffffffffffff1673ffffffffffffffffffffffffffffffffffffffff166323b872dd60008054906101000a900473ffffffffffffffffffffffffffffffffffffffff16336001546040518463ffffffff1660e01b81526004016105b693929190610af0565b6020604051808303816000875af11580156105d5573d6000803e3d6000fd5b505050506040513d601f19601f820116820180604052508101906105f99190610b5f565b610638576040517f08c379a000000000000000000000000000000000000000000000000000000000815260040161062f90610bd8565b60405180910390fd5b505050565b600360009054906101000a900473ffffffffffffffffffffffffffffffffffffffff1681565b60008054906101000a900473ffffffffffffffffffffffffffffffffffffffff1681565b600660009054906101000a900473ffffffffffffffffffffffffffffffffffffffff1681565b600460009054906101000a900473ffffffffffffffffffffffffffffffffffffffff1681565b60015481565b600560009054906101000a900473ffffffffffffffffffffffffffffffffffffffff1681565b600080fd5b6000819050919050565b61071781610704565b811461072257600080fd5b50565b6000813590506107348161070e565b92915050565b6000602082840312156107505761074f6106ff565b5b600061075e84828501610725565b91505092915050565b600073ffffffffffffffffffffffffffffffffffffffff82169050919050565b6000819050919050565b60006107ac6107a76107a284610767565b610787565b610767565b9050919050565b60006107be82610791565b9050919050565b60006107d0826107b3565b9050919050565b6107e0816107c5565b82525050565b60006020820190506107fb60008301846107d7565b92915050565b600060ff82169050919050565b61081781610801565b811461082257600080fd5b50565b6000813590506108348161080e565b92915050565b60008060408385031215610851576108506106ff565b5b600061085f85828601610725565b925050602061087085828601610825565b9150509250929050565b6000610885826107b3565b9050919050565b6108958161087a565b82525050565b60006020820190506108b0600083018461088c565b92915050565b60006108c182610767565b9050919050565b6108d1816108b6565b82525050565b60006020820190506108ec60008301846108c8565b92915050565b6108fb81610704565b82525050565b600060208201905061091660008301846108f2565b92915050565b600082825260208201905092915050565b7f4f6e6c7920746865206f776e65722063616e207570646174652074686520726560008201527f7761726420616d6f756e74000000000000000000000000000000000000000000602082015250565b6000610989602b8361091c565b91506109948261092d565b604082019050919050565b600060208201905081810360008301526109b88161097c565b9050919050565b7f496e76616c696420636f6c6c656374696f6e20696e6465780000000000000000600082015250565b60006109f560188361091c565b9150610a00826109bf565b602082019050919050565b60006020820190508181036000830152610a24816109e8565b9050919050565b610a34816108b6565b8114610a3f57600080fd5b50565b600081519050610a5181610a2b565b92915050565b600060208284031215610a6d57610a6c6106ff565b5b6000610a7b84828501610a42565b91505092915050565b7f4e6f7420746865206f776e6572206f6620746865204e46540000000000000000600082015250565b6000610aba60188361091c565b9150610ac582610a84565b602082019050919050565b60006020820190508181036000830152610ae981610aad565b9050919050565b6000606082019050610b0560008301866108c8565b610b1260208301856108c8565b610b1f60408301846108f2565b949350505050565b60008115159050919050565b610b3c81610b27565b8114610b4757600080fd5b50565b600081519050610b5981610b33565b92915050565b600060208284031215610b7557610b746106ff565b5b6000610b8384828501610b4a565b91505092915050565b7f4c6f766520746f6b656e207472616e73666572206661696c6564000000000000600082015250565b6000610bc2601a8361091c565b9150610bcd82610b8c565b602082019050919050565b60006020820190508181036000830152610bf181610bb5565b905091905056fea2646970667358221220c6c89d11d780a2f9a5d0bab88bab85a894cbc138be9f631ed496ee0782c7ac7164736f6c63430008120033",
  "linkReferences": {},
  "deployedLinkReferences": {}
}